{
  "_format": "hh-sol-artifact-1",
  "contractName": "AContract",
  "sourceName": "contracts/AContract.sol",
  "abi": [
    {
      "inputs": [
        {
          "internalType": "address",
          "name": "BTAddress",
          "type": "address"
        }
      ],
      "stateMutability": "nonpayable",
      "type": "constructor"
    },
    {
      "inputs": [
        {
          "internalType": "uint256",
          "name": "amount",
          "type": "uint256"
        }
      ],
      "name": "burn",
      "outputs": [],
      "stateMutability": "nonpayable",
      "type": "function"
    },
    {
      "inputs": [
        {
          "internalType": "uint256",
          "name": "amount",
          "type": "uint256"
        }
      ],
      "name": "lock",
      "outputs": [],
      "stateMutability": "nonpayable",
      "type": "function"
    },
    {
      "inputs": [
        {
          "internalType": "uint256",
          "name": "amount",
          "type": "uint256"
        }
      ],
      "name": "mint",
      "outputs": [],
      "stateMutability": "nonpayable",
      "type": "function"
    },
    {
      "inputs": [
        {
          "internalType": "address",
          "name": "tokenAddress",
          "type": "address"
        }
      ],
      "name": "setTokenAddress",
      "outputs": [],
      "stateMutability": "nonpayable",
      "type": "function"
    },
    {
      "inputs": [
        {
          "internalType": "uint256",
          "name": "amount",
          "type": "uint256"
        }
      ],
      "name": "withdraw",
      "outputs": [],
      "stateMutability": "nonpayable",
      "type": "function"
    }
  ],
  "bytecode": "0x608060405234801561001057600080fd5b5060405161063b38038061063b83398101604081905261002f91610054565b600080546001600160a01b0319166001600160a01b0392909216919091179055610084565b60006020828403121561006657600080fd5b81516001600160a01b038116811461007d57600080fd5b9392505050565b6105a8806100936000396000f3fe608060405234801561001057600080fd5b50600436106100575760003560e01c806326a4e8d21461005c5780632e1a7d4d1461008e57806342966c68146100a1578063a0712d68146100b4578063dd467064146100c7575b600080fd5b61008c61006a3660046104ac565b600080546001600160a01b0319166001600160a01b0392909216919091179055565b005b61008c61009c3660046104dc565b6100da565b61008c6100af3660046104dc565b6101f2565b61008c6100c23660046104dc565b61031a565b61008c6100d53660046104dc565b610351565b336000908152600160205260409020548111156101555760405162461bcd60e51b815260206004820152602e60248201527f546865206c6f636b20617373657420697320736d616c6c6572207468616e207260448201526d195c5d5a5c995908185b5bdd5b9d60921b60648201526084015b60405180910390fd5b60005460405163a9059cbb60e01b8152336004820152602481018390526001600160a01b039091169063a9059cbb906044016020604051808303816000875af11580156101a6573d6000803e3d6000fd5b505050506040513d601f19601f820116820180604052508101906101ca91906104f5565b5033600090815260016020526040812080548392906101ea90849061052d565b909155505050565b600054604051636eb1769f60e11b815233600482015230602482015282916001600160a01b03169063dd62ed3e90604401602060405180830381865afa158015610240573d6000803e3d6000fd5b505050506040513d601f19601f820116820180604052508101906102649190610546565b10156102b25760405162461bcd60e51b815260206004820152601860248201527f54686520616d6f756e74206973206e6f7420656e6f7567680000000000000000604482015260640161014c565b600054604051632770a7eb60e21b8152336004820152602481018390526001600160a01b0390911690639dc29fac906044015b600060405180830381600087803b1580156102ff57600080fd5b505af1158015610313573d6000803e3d6000fd5b5050505050565b6000546040516340c10f1960e01b8152336004820152602481018390526001600160a01b03909116906340c10f19906044016102e5565b600054604051636eb1769f60e11b815233600482015230602482015282916001600160a01b03169063dd62ed3e90604401602060405180830381865afa15801561039f573d6000803e3d6000fd5b505050506040513d601f19601f820116820180604052508101906103c39190610546565b10156104115760405162461bcd60e51b815260206004820152601b60248201527f74686520616c6c6f77616e6365206973206e6f7420656e6f7567680000000000604482015260640161014c565b6000546040516323b872dd60e01b8152336004820152306024820152604481018390526001600160a01b03909116906323b872dd906064016020604051808303816000875af1158015610468573d6000803e3d6000fd5b505050506040513d601f19601f8201168201806040525081019061048c91906104f5565b5033600090815260016020526040812080548392906101ea90849061055f565b6000602082840312156104be57600080fd5b81356001600160a01b03811681146104d557600080fd5b9392505050565b6000602082840312156104ee57600080fd5b5035919050565b60006020828403121561050757600080fd5b815180151581146104d557600080fd5b634e487b7160e01b600052601160045260246000fd5b8181038181111561054057610540610517565b92915050565b60006020828403121561055857600080fd5b5051919050565b808201808211156105405761054061051756fea264697066735822122086c7ab5a37d0b632886e303924524f5b2de929aa40f3af834f404e902cdd87cc64736f6c63430008140033",
  "linkReferences": {},
  "deployedLinkReferences": {}
}