{
  "_format": "hh-sol-artifact-1",
  "contractName": "CContract",
  "sourceName": "contracts/Ccontract.sol",
  "abi": [
    {
      "inputs": [
        {
          "internalType": "uint256",
          "name": "initialSupply",
          "type": "uint256"
        }
      ],
      "stateMutability": "nonpayable",
      "type": "constructor"
    },
    {
      "inputs": [],
      "name": "AccessControlBadConfirmation",
      "type": "error"
    },
    {
      "inputs": [
        {
          "internalType": "address",
          "name": "account",
          "type": "address"
        },
        {
          "internalType": "bytes32",
          "name": "neededRole",
          "type": "bytes32"
        }
      ],
      "name": "AccessControlUnauthorizedAccount",
      "type": "error"
    },
    {
      "inputs": [
        {
          "internalType": "address",
          "name": "spender",
          "type": "address"
        },
        {
          "internalType": "uint256",
          "name": "allowance",
          "type": "uint256"
        },
        {
          "internalType": "uint256",
          "name": "needed",
          "type": "uint256"
        }
      ],
      "name": "ERC20InsufficientAllowance",
      "type": "error"
    },
    {
      "inputs": [
        {
          "internalType": "address",
          "name": "sender",
          "type": "address"
        },
        {
          "internalType": "uint256",
          "name": "balance",
          "type": "uint256"
        },
        {
          "internalType": "uint256",
          "name": "needed",
          "type": "uint256"
        }
      ],
      "name": "ERC20InsufficientBalance",
      "type": "error"
    },
    {
      "inputs": [
        {
          "internalType": "address",
          "name": "approver",
          "type": "address"
        }
      ],
      "name": "ERC20InvalidApprover",
      "type": "error"
    },
    {
      "inputs": [
        {
          "internalType": "address",
          "name": "receiver",
          "type": "address"
        }
      ],
      "name": "ERC20InvalidReceiver",
      "type": "error"
    },
    {
      "inputs": [
        {
          "internalType": "address",
          "name": "sender",
          "type": "address"
        }
      ],
      "name": "ERC20InvalidSender",
      "type": "error"
    },
    {
      "inputs": [
        {
          "internalType": "address",
          "name": "spender",
          "type": "address"
        }
      ],
      "name": "ERC20InvalidSpender",
      "type": "error"
    },
    {
      "anonymous": false,
      "inputs": [
        {
          "indexed": true,
          "internalType": "address",
          "name": "owner",
          "type": "address"
        },
        {
          "indexed": true,
          "internalType": "address",
          "name": "spender",
          "type": "address"
        },
        {
          "indexed": false,
          "internalType": "uint256",
          "name": "value",
          "type": "uint256"
        }
      ],
      "name": "Approval",
      "type": "event"
    },
    {
      "anonymous": false,
      "inputs": [
        {
          "indexed": true,
          "internalType": "bytes32",
          "name": "role",
          "type": "bytes32"
        },
        {
          "indexed": true,
          "internalType": "bytes32",
          "name": "previousAdminRole",
          "type": "bytes32"
        },
        {
          "indexed": true,
          "internalType": "bytes32",
          "name": "newAdminRole",
          "type": "bytes32"
        }
      ],
      "name": "RoleAdminChanged",
      "type": "event"
    },
    {
      "anonymous": false,
      "inputs": [
        {
          "indexed": true,
          "internalType": "bytes32",
          "name": "role",
          "type": "bytes32"
        },
        {
          "indexed": true,
          "internalType": "address",
          "name": "account",
          "type": "address"
        },
        {
          "indexed": true,
          "internalType": "address",
          "name": "sender",
          "type": "address"
        }
      ],
      "name": "RoleGranted",
      "type": "event"
    },
    {
      "anonymous": false,
      "inputs": [
        {
          "indexed": true,
          "internalType": "bytes32",
          "name": "role",
          "type": "bytes32"
        },
        {
          "indexed": true,
          "internalType": "address",
          "name": "account",
          "type": "address"
        },
        {
          "indexed": true,
          "internalType": "address",
          "name": "sender",
          "type": "address"
        }
      ],
      "name": "RoleRevoked",
      "type": "event"
    },
    {
      "anonymous": false,
      "inputs": [
        {
          "indexed": true,
          "internalType": "address",
          "name": "from",
          "type": "address"
        },
        {
          "indexed": true,
          "internalType": "address",
          "name": "to",
          "type": "address"
        },
        {
          "indexed": false,
          "internalType": "uint256",
          "name": "value",
          "type": "uint256"
        }
      ],
      "name": "Transfer",
      "type": "event"
    },
    {
      "inputs": [],
      "name": "BURN_MINT_ROLE",
      "outputs": [
        {
          "internalType": "bytes32",
          "name": "",
          "type": "bytes32"
        }
      ],
      "stateMutability": "view",
      "type": "function"
    },
    {
      "inputs": [],
      "name": "DEFAULT_ADMIN_ROLE",
      "outputs": [
        {
          "internalType": "bytes32",
          "name": "",
          "type": "bytes32"
        }
      ],
      "stateMutability": "view",
      "type": "function"
    },
    {
      "inputs": [
        {
          "internalType": "address",
          "name": "owner",
          "type": "address"
        },
        {
          "internalType": "address",
          "name": "spender",
          "type": "address"
        }
      ],
      "name": "allowance",
      "outputs": [
        {
          "internalType": "uint256",
          "name": "",
          "type": "uint256"
        }
      ],
      "stateMutability": "view",
      "type": "function"
    },
    {
      "inputs": [
        {
          "internalType": "address",
          "name": "spender",
          "type": "address"
        },
        {
          "internalType": "uint256",
          "name": "value",
          "type": "uint256"
        }
      ],
      "name": "approve",
      "outputs": [
        {
          "internalType": "bool",
          "name": "",
          "type": "bool"
        }
      ],
      "stateMutability": "nonpayable",
      "type": "function"
    },
    {
      "inputs": [
        {
          "internalType": "address",
          "name": "account",
          "type": "address"
        }
      ],
      "name": "balanceOf",
      "outputs": [
        {
          "internalType": "uint256",
          "name": "",
          "type": "uint256"
        }
      ],
      "stateMutability": "view",
      "type": "function"
    },
    {
      "inputs": [
        {
          "internalType": "address",
          "name": "_contractAddress",
          "type": "address"
        },
        {
          "internalType": "address",
          "name": "_account",
          "type": "address"
        },
        {
          "internalType": "uint256",
          "name": "_amount",
          "type": "uint256"
        }
      ],
      "name": "burn",
      "outputs": [],
      "stateMutability": "nonpayable",
      "type": "function"
    },
    {
      "inputs": [],
      "name": "decimals",
      "outputs": [
        {
          "internalType": "uint8",
          "name": "",
          "type": "uint8"
        }
      ],
      "stateMutability": "view",
      "type": "function"
    },
    {
      "inputs": [
        {
          "internalType": "bytes32",
          "name": "role",
          "type": "bytes32"
        }
      ],
      "name": "getRoleAdmin",
      "outputs": [
        {
          "internalType": "bytes32",
          "name": "",
          "type": "bytes32"
        }
      ],
      "stateMutability": "view",
      "type": "function"
    },
    {
      "inputs": [
        {
          "internalType": "address",
          "name": "_contractAddress",
          "type": "address"
        },
        {
          "internalType": "address",
          "name": "_account",
          "type": "address"
        }
      ],
      "name": "grantMintRole",
      "outputs": [],
      "stateMutability": "nonpayable",
      "type": "function"
    },
    {
      "inputs": [
        {
          "internalType": "bytes32",
          "name": "role",
          "type": "bytes32"
        },
        {
          "internalType": "address",
          "name": "account",
          "type": "address"
        }
      ],
      "name": "grantRole",
      "outputs": [],
      "stateMutability": "nonpayable",
      "type": "function"
    },
    {
      "inputs": [
        {
          "internalType": "bytes32",
          "name": "role",
          "type": "bytes32"
        },
        {
          "internalType": "address",
          "name": "account",
          "type": "address"
        }
      ],
      "name": "hasRole",
      "outputs": [
        {
          "internalType": "bool",
          "name": "",
          "type": "bool"
        }
      ],
      "stateMutability": "view",
      "type": "function"
    },
    {
      "inputs": [
        {
          "internalType": "address",
          "name": "_contractAddress",
          "type": "address"
        },
        {
          "internalType": "address",
          "name": "_account",
          "type": "address"
        },
        {
          "internalType": "uint256",
          "name": "_amount",
          "type": "uint256"
        }
      ],
      "name": "mint",
      "outputs": [],
      "stateMutability": "nonpayable",
      "type": "function"
    },
    {
      "inputs": [],
      "name": "name",
      "outputs": [
        {
          "internalType": "string",
          "name": "",
          "type": "string"
        }
      ],
      "stateMutability": "view",
      "type": "function"
    },
    {
      "inputs": [
        {
          "internalType": "bytes32",
          "name": "role",
          "type": "bytes32"
        },
        {
          "internalType": "address",
          "name": "callerConfirmation",
          "type": "address"
        }
      ],
      "name": "renounceRole",
      "outputs": [],
      "stateMutability": "nonpayable",
      "type": "function"
    },
    {
      "inputs": [
        {
          "internalType": "bytes32",
          "name": "role",
          "type": "bytes32"
        },
        {
          "internalType": "address",
          "name": "account",
          "type": "address"
        }
      ],
      "name": "revokeRole",
      "outputs": [],
      "stateMutability": "nonpayable",
      "type": "function"
    },
    {
      "inputs": [
        {
          "internalType": "bytes4",
          "name": "interfaceId",
          "type": "bytes4"
        }
      ],
      "name": "supportsInterface",
      "outputs": [
        {
          "internalType": "bool",
          "name": "",
          "type": "bool"
        }
      ],
      "stateMutability": "view",
      "type": "function"
    },
    {
      "inputs": [],
      "name": "symbol",
      "outputs": [
        {
          "internalType": "string",
          "name": "",
          "type": "string"
        }
      ],
      "stateMutability": "view",
      "type": "function"
    },
    {
      "inputs": [],
      "name": "totalSupply",
      "outputs": [
        {
          "internalType": "uint256",
          "name": "",
          "type": "uint256"
        }
      ],
      "stateMutability": "view",
      "type": "function"
    },
    {
      "inputs": [
        {
          "internalType": "address",
          "name": "to",
          "type": "address"
        },
        {
          "internalType": "uint256",
          "name": "value",
          "type": "uint256"
        }
      ],
      "name": "transfer",
      "outputs": [
        {
          "internalType": "bool",
          "name": "",
          "type": "bool"
        }
      ],
      "stateMutability": "nonpayable",
      "type": "function"
    },
    {
      "inputs": [
        {
          "internalType": "address",
          "name": "from",
          "type": "address"
        },
        {
          "internalType": "address",
          "name": "to",
          "type": "address"
        },
        {
          "internalType": "uint256",
          "name": "value",
          "type": "uint256"
        }
      ],
      "name": "transferFrom",
      "outputs": [
        {
          "internalType": "bool",
          "name": "",
          "type": "bool"
        }
      ],
      "stateMutability": "nonpayable",
      "type": "function"
    }
  ],
  "bytecode": "0x60806040523480156200001157600080fd5b50604051620012a5380380620012a583398101604081905262000034916200030d565b6040518060400160405280600681526020016521aa37b5b2b760d11b8152506040518060400160405280600281526020016110d560f21b81525081600390816200007f9190620003cc565b5060046200008e8282620003cc565b505050620000a33382620000e560201b60201c565b620000b060003362000127565b50620000dd7f9c8fd84cabb888d615bd96703b5fe25da08f68a7ca69c1b49af4bf94b41c37de3362000127565b5050620004ba565b6001600160a01b038216620001155760405163ec442f0560e01b8152600060048201526024015b60405180910390fd5b6200012360008383620001da565b5050565b60008281526005602090815260408083206001600160a01b038516845290915281205460ff16620001d05760008381526005602090815260408083206001600160a01b03861684529091529020805460ff19166001179055620001873390565b6001600160a01b0316826001600160a01b0316847f2f8788117e7eff1d82e926ec794901d17c78024a50270940304540a733656f0d60405160405180910390a4506001620001d4565b5060005b92915050565b6001600160a01b03831662000209578060026000828254620001fd919062000498565b909155506200027d9050565b6001600160a01b038316600090815260208190526040902054818110156200025e5760405163391434e360e21b81526001600160a01b038516600482015260248101829052604481018390526064016200010c565b6001600160a01b03841660009081526020819052604090209082900390555b6001600160a01b0382166200029b57600280548290039055620002ba565b6001600160a01b03821660009081526020819052604090208054820190555b816001600160a01b0316836001600160a01b03167fddf252ad1be2c89b69c2b068fc378daa952ba7f163c4a11628f55a4df523b3ef836040516200030091815260200190565b60405180910390a3505050565b6000602082840312156200032057600080fd5b5051919050565b634e487b7160e01b600052604160045260246000fd5b600181811c908216806200035257607f821691505b6020821081036200037357634e487b7160e01b600052602260045260246000fd5b50919050565b601f821115620003c757600081815260208120601f850160051c81016020861015620003a25750805b601f850160051c820191505b81811015620003c357828155600101620003ae565b5050505b505050565b81516001600160401b03811115620003e857620003e862000327565b6200040081620003f984546200033d565b8462000379565b602080601f8311600181146200043857600084156200041f5750858301515b600019600386901b1c1916600185901b178555620003c3565b600085815260208120601f198616915b82811015620004695788860151825594840194600190910190840162000448565b5085821015620004885787850151600019600388901b60f8161c191681555b5050505050600190811b01905550565b80820180821115620001d457634e487b7160e01b600052601160045260246000fd5b610ddb80620004ca6000396000f3fe608060405234801561001057600080fd5b506004361061012c5760003560e01c806391d14854116100ad578063ce630cc411610071578063ce630cc414610272578063d547741f14610299578063d97147b2146102ac578063dd62ed3e146102bf578063f6b911bc146102f857600080fd5b806391d148541461022957806395d89b411461023c578063a217fddf14610244578063a9059cbb1461024c578063c6c3bbe61461025f57600080fd5b8063248a9ca3116100f4578063248a9ca3146101a65780632f2ff15d146101c9578063313ce567146101de57806336568abe146101ed57806370a082311461020057600080fd5b806301ffc9a71461013157806306fdde0314610159578063095ea7b31461016e57806318160ddd1461018157806323b872dd14610193575b600080fd5b61014461013f366004610b9a565b61030b565b60405190151581526020015b60405180910390f35b610161610342565b6040516101509190610bef565b61014461017c366004610c3e565b6103d4565b6002545b604051908152602001610150565b6101446101a1366004610c68565b6103ec565b6101856101b4366004610ca4565b60009081526005602052604090206001015490565b6101dc6101d7366004610cbd565b610410565b005b60405160128152602001610150565b6101dc6101fb366004610cbd565b61043b565b61018561020e366004610ce9565b6001600160a01b031660009081526020819052604090205490565b610144610237366004610cbd565b610473565b61016161049e565b610185600081565b61014461025a366004610c3e565b6104ad565b6101dc61026d366004610c68565b6104bb565b6101857f9c8fd84cabb888d615bd96703b5fe25da08f68a7ca69c1b49af4bf94b41c37de81565b6101dc6102a7366004610cbd565b6105d5565b6101dc6102ba366004610d04565b6105fa565b6101856102cd366004610d04565b6001600160a01b03918216600090815260016020908152604080832093909416825291909152205490565b6101dc610306366004610c68565b6106e8565b60006001600160e01b03198216637965db0b60e01b148061033c57506301ffc9a760e01b6001600160e01b03198316145b92915050565b60606003805461035190610d2e565b80601f016020809104026020016040519081016040528092919081815260200182805461037d90610d2e565b80156103ca5780601f1061039f576101008083540402835291602001916103ca565b820191906000526020600020905b8154815290600101906020018083116103ad57829003601f168201915b5050505050905090565b6000336103e281858561076c565b5060019392505050565b6000336103fa858285610779565b6104058585856107f1565b506001949350505050565b60008281526005602052604090206001015461042b81610850565b610435838361085d565b50505050565b6001600160a01b03811633146104645760405163334bd91960e11b815260040160405180910390fd5b61046e82826108f1565b505050565b60009182526005602090815260408084206001600160a01b0393909316845291905290205460ff1690565b60606004805461035190610d2e565b6000336103e28185856107f1565b7f9c8fd84cabb888d615bd96703b5fe25da08f68a7ca69c1b49af4bf94b41c37de6104e581610850565b6040516001600160a01b03848116602483015260448201849052600091829187169060640160408051601f198184030181529181526020820180516001600160e01b03166340c10f1960e01b1790525161053f9190610d68565b600060405180830381855af49150503d806000811461057a576040519150601f19603f3d011682016040523d82523d6000602084013e61057f565b606091505b5091509150816105cd5760405162461bcd60e51b815260206004820152601460248201527311195b1959d85d194818d85b1b0819985a5b195960621b60448201526064015b60405180910390fd5b505050505050565b6000828152600560205260409020600101546105f081610850565b61043583836108f1565b600061060581610850565b6040516001600160a01b038381166024830152600091829186169060440160408051601f198184030181529181526020820180516001600160e01b031663c2e3273d60e01b179052516106589190610d68565b600060405180830381855af49150503d8060008114610693576040519150601f19603f3d011682016040523d82523d6000602084013e610698565b606091505b5091509150816106e15760405162461bcd60e51b815260206004820152601460248201527311195b1959d85d194818d85b1b0819985a5b195960621b60448201526064016105c4565b5050505050565b7f9c8fd84cabb888d615bd96703b5fe25da08f68a7ca69c1b49af4bf94b41c37de61071281610850565b6040516001600160a01b03848116602483015260448201849052600091829187169060640160408051601f198184030181529181526020820180516001600160e01b0316632770a7eb60e21b1790525161053f9190610d68565b61046e838383600161095e565b6001600160a01b03838116600090815260016020908152604080832093861683529290522054600019811461043557818110156107e257604051637dc7a0d960e11b81526001600160a01b038416600482015260248101829052604481018390526064016105c4565b6104358484848403600061095e565b6001600160a01b03831661081b57604051634b637e8f60e11b8152600060048201526024016105c4565b6001600160a01b0382166108455760405163ec442f0560e01b8152600060048201526024016105c4565b61046e838383610a33565b61085a8133610b5d565b50565b60006108698383610473565b6108e95760008381526005602090815260408083206001600160a01b03861684529091529020805460ff191660011790556108a13390565b6001600160a01b0316826001600160a01b0316847f2f8788117e7eff1d82e926ec794901d17c78024a50270940304540a733656f0d60405160405180910390a450600161033c565b50600061033c565b60006108fd8383610473565b156108e95760008381526005602090815260408083206001600160a01b0386168085529252808320805460ff1916905551339286917ff6391f5c32d9c69d2a47ea670b442974b53935d1edc7fd64eb21e047a839171b9190a450600161033c565b6001600160a01b0384166109885760405163e602df0560e01b8152600060048201526024016105c4565b6001600160a01b0383166109b257604051634a1406b160e11b8152600060048201526024016105c4565b6001600160a01b038085166000908152600160209081526040808320938716835292905220829055801561043557826001600160a01b0316846001600160a01b03167f8c5be1e5ebec7d5bd14f71427d1e84f3dd0314c0f7b2291e5b200ac8c7c3b92584604051610a2591815260200190565b60405180910390a350505050565b6001600160a01b038316610a5e578060026000828254610a539190610d84565b90915550610ad09050565b6001600160a01b03831660009081526020819052604090205481811015610ab15760405163391434e360e21b81526001600160a01b038516600482015260248101829052604481018390526064016105c4565b6001600160a01b03841660009081526020819052604090209082900390555b6001600160a01b038216610aec57600280548290039055610b0b565b6001600160a01b03821660009081526020819052604090208054820190555b816001600160a01b0316836001600160a01b03167fddf252ad1be2c89b69c2b068fc378daa952ba7f163c4a11628f55a4df523b3ef83604051610b5091815260200190565b60405180910390a3505050565b610b678282610473565b610b965760405163e2517d3f60e01b81526001600160a01b0382166004820152602481018390526044016105c4565b5050565b600060208284031215610bac57600080fd5b81356001600160e01b031981168114610bc457600080fd5b9392505050565b60005b83811015610be6578181015183820152602001610bce565b50506000910152565b6020815260008251806020840152610c0e816040850160208701610bcb565b601f01601f19169190910160400192915050565b80356001600160a01b0381168114610c3957600080fd5b919050565b60008060408385031215610c5157600080fd5b610c5a83610c22565b946020939093013593505050565b600080600060608486031215610c7d57600080fd5b610c8684610c22565b9250610c9460208501610c22565b9150604084013590509250925092565b600060208284031215610cb657600080fd5b5035919050565b60008060408385031215610cd057600080fd5b82359150610ce060208401610c22565b90509250929050565b600060208284031215610cfb57600080fd5b610bc482610c22565b60008060408385031215610d1757600080fd5b610d2083610c22565b9150610ce060208401610c22565b600181811c90821680610d4257607f821691505b602082108103610d6257634e487b7160e01b600052602260045260246000fd5b50919050565b60008251610d7a818460208701610bcb565b9190910192915050565b8082018082111561033c57634e487b7160e01b600052601160045260246000fdfea2646970667358221220280297e061373b179fa90cd36fcba1df1317cedbb45eec456f182e3de5058ffd64736f6c63430008140033",
  "linkReferences": {},
  "deployedLinkReferences": {}
}